:100000000C943E000C9453000C9453000C94530039
:100010000C9453000C9453000C9453000C94530014
:100020000C9453000C9453000C9453000C94530004
:100030000C9453000C9453000C9453000C945300F4
:100040000C9453000C9453000C9453000C945300E4
:100050000C9453000C9453000C9453000C945300D4
:100060000C9453000C9453000C9453000C945300C4
:100070000C9453000C9453000C94530011241FBE95
:10008000CFEFD8E0DEBFCDBF11E0A0E0B1E0EAE302
:10009000F1E002C005900D92AA30B107D9F70E9495
:1000A00097000C949B000C94000080E091E00E946B
:1000B00082008FE39CE90197F1F700C00000F5CFC3
:1000C0001092C50087E68093C40088E18093C10048
:1000D000E2ECF0E08081877F808380818460808390
:1000E00080818062808308959091C00095FFFCCF4D
:1000F0008093C60008958091C00087FFFCCF809157
:10010000C6000895CF93DF93EC018991882319F0FD
:100110000E947400FACFDF91CF9108959091C000B2
:1001200095FFFCCF8093C60080E090E008950E9488
:0A01300060000E945500F894FFCF14
:0A013A0053616C7574210A0D00007A
:00000001FF
