:100000000C9455000C9472000C9472000C947200C5
:100010000C9472000C9472000C9472000C94720098
:100020000C9472000C9472000C9472000C94720088
:100030000C9472000C9472000C9472000C94720078
:100040000C9472000C9472000C9472000C94720068
:100050000C9472000C9472000C9472000C94720058
:100060000C9472000C9472000C9472000C94720048
:100070000C9472000C9472000C947200084AD73BE6
:100080003BCE016E84BCBFFDC12F3D6C74319ABD67
:1000900056833DDA3D00C77F11BED9E4BB4C3E918B
:1000A0006BAAAABE000000803F0011241FBECFEF44
:1000B000D8E0DEBFCDBF11E0A0E0B1E0EAE1F3E1BE
:1000C00002C005900D92A230B107D9F721E0A2E05D
:1000D000B1E001C01D92AE30B207E1F70E94D90530
:1000E0000C948B090C940000249A089585E28A955B
:1000F000F1F700000895FF920F931F93CF93DF93C2
:10010000182F062FF42EF894CCE3D0E04F2D602F5B
:10011000812F0E94C3052197C9F7789485E28A95BB
:10012000F1F70000DF91CF911F910F91FF9008959B
:10013000DF92EF92FF920F931F93CF93DF93F82EEE
:10014000E62ED42EC0E0D0E0F89420E030E0890123
:100150000F5F1F4FC217D30738F04D2D6E2D8F2D17
:100160000E94C3059801F3CF0F5F1F4F0E33110597
:1001700031F040E060E080E00E94C305F5CF789464
:1001800025E22A95F1F700008FEF90E722E08150F9
:1001900090402040E1F700C000002196CC33D1050B
:1001A00099F6DF91CF911F910F91FF90EF90DF9023
:1001B00008959F92AF92BF92CF92DF92EF92FF92FB
:1001C0000F931F93CF93DF93B82EA62E942E93E018
:1001D000E92EF12C00E010E0F8948CE3C82ED12C2D
:1001E000C0E0D0E0C017D10721F4492D6A2D8B2D36
:1001F00003C040E060E080E00E94C3052196CC305F
:10020000D10511F4C0E0D0E021E0C21AD10851F7C5
:10021000789485E28A95F1F700009FEF21EE84E063
:10022000915020408040E1F700C000000F5F1F4F59
:100230000C30110589F691E0E91AF10859F6DF91C1
:10024000CF911F910F91FF90EF90DF90CF90BF90D3
:10025000AF909F9008956F927F928F929F92AF92EE
:10026000BF92CF92DF92EF92FF920F931F93CF93A3
:10027000DF936C015B014A01C0E0D0E000E010E0D8
:10028000CC15DD05A1F1F89438012CE3E22EF12C18
:10029000611483E0780610F083E0781A862D272D0C
:1002A00033272130310549F02230310559F0232B15
:1002B00079F440E0662D809509C0462D662D609545
:1002C00080E004C0462D409560E0862D0E94C30565
:1002D000680C791C81E0E81AF108D1F6789485E27F
:1002E0008A95F1F700000A0D1B1D2196C9CFDF91F9
:1002F000CF911F910F91FF90EF90DF90CF90BF9023
:10030000AF909F908F907F906F9008952F923F9223
:100310004F925F926F927F928F929F92AF92BF9215
:10032000CF92DF92EF92FF920F931F93CF93DF93C1
:1003300000D000D0CDB7DEB7982E062FE42E69018D
:10034000F5E0AF2EB12CC114D10431F14E2D602F48
:10035000892D0E947B002FEF40E752E02150404062
:100360005040E1F700C0000040E060E080E00E9403
:100370007B008FEF93ED20E3815090402040E1F728
:1003800000C00000C601880F991F880F991FB50192
:100390000E943E066B01D7CFF12C662477246E189D
:1003A0007F0810E022243324201A310A892D90E09E
:1003B00022273327281B390BFE2CEE24102F002771
:1003C000582F44275C834B83A12CB12C812C912C7A
:1003D000412C512CC12CDD24D394A2014E0D5F1D64
:1003E000B401600F711F8B819C818A0D9B1D452F6D
:1003F000672F892F29833A830E947B0051E0C51A19
:10040000D108460C571C820C931C29813A81A20EFC
:10041000B31EC114D10409F740E060E080E00F9002
:100420000F900F900F90DF91CF911F910F91FF9040
:10043000EF90DF90CF90BF90AF909F908F907F9084
:100440006F905F904F903F902F900C947B0020E036
:1004500040E060E08FEF0E94980020E040E06FEF06
:1004600080E00E94980020E04FEF60E080E00E9472
:10047000980020E04FE76FE78FE70E94D90020E067
:1004800040E060E08FE70E94D90020E04FE760E0A5
:1004900080E00C94D9001092C50087E68093C400D8
:1004A00088E18093C100E2ECF0E08081877F808367
:1004B00080818460808380818062808308959091B0
:1004C000C00095FFFCCF8093C60008958091C000C6
:1004D00087FFFCCF8091C6000895CF93DF93EC0196
:1004E0008991882319F00E945F02FACFDF91CF91A2
:1004F00008959091C00095FFFCCF8093C60080E0E6
:1005000090E008951092B90088E18093B8000895B2
:1005100094EA9093BC009091BC0097FFFCCF90911F
:10052000B900987F983021F0903111F081E0089562
:100530008093BB0084E88093BC008091BC0087FF5F
:10054000FCCF8091B900887F883111F0803471F739
:1005500080E0089524EA34E844E92093BC009091B7
:10056000BC0097FFFCCF9091B900987F983011F0B4
:10057000903199F78093BB003093BC009091BC0000
:1005800097FFFCCF9091B900987F903211F0983589
:1005900039F44093BC009091BC0094FDFCCFDDCFBA
:1005A00008950C94880284E98093BC008091BC007B
:1005B00084FDFCCF08958093BB0084E88093BC0049
:1005C0008091BC0087FFFCCF9091B900987F81E0BB
:1005D000983209F480E0089584EC8093BC00809107
:1005E000BC0087FFFCCF8091BB00089584E8809316
:1005F000BC008091BC0087FFFCCF8091BB000895B8
:100600002F923F924F925F926F927F928F929F9222
:10061000AF92BF92CF92DF92EF92FF920F931F9310
:10062000CF93DF93CDB7DEB728970FB6F894DEBF30
:100630000FBECDBF6D837E838F83988729833A83D6
:100640004B835C8327013801160185019B01AC01B6
:100650000E94BF084B015C0129813A814B815C817A
:10066000CA01B9010E94BF089B01AC01C501B401D8
:100670000E9453064B015C01A3019201C301B20128
:100680000E94BF089B01AC01C501B4010E94530642
:100690000E9432096B017C019B01AC0169817A8166
:1006A0008B819C810E9436074B015C01A70196015A
:1006B000C301B2010E94360769837A838B839C83CE
:1006C000A5019401C501B4010E94BF082B013C01A2
:1006D00029813A814B815C81CA01B9010E94BF081E
:1006E0009B01AC01C301B2010E9453060E94320972
:1006F0002B013C01A70196016D817E818F81988538
:100700000E943607A30192010E94D206DC01CB01B0
:10071000B058F10180839183A283B38329813A8108
:100720004B815C81C501B4010E94D206F80160834F
:1007300071838283938328960FB6F894DEBF0FBE31
:10074000CDBFDF91CF911F910F91FF90EF90DF9080
:10075000CF90BF90AF909F908F907F906F905F9061
:100760004F903F902F9008950E94820225E32A9592
:10077000F1F700008FE39FE10197F1F700C000005F
:1007800086EA0E94D10281E30E94DB0280E00E949F
:10079000DB0286EA0E94D1028DE20E94DB0280E049
:1007A0000E94DB0286EA0E94D1028DE20E94DB02F7
:1007B00086E10E94DB0286EA0E94D1028DE20E945D
:1007C000DB0288E00E94DB0286EA0E94D1028EE210
:1007D0000E94DB0280E80E94DB029FEF29EF80E0AD
:1007E000915020408040E1F700C000000C94D302FB
:1007F0001F93CF93DF9300D0CDB7DEB7182F86EAD3
:100800004A8369830E94AA028EE10E94DB02812F43
:100810000E94DB0286EA0E94D1028FE10E94DB0285
:100820006981862F0E94DB0286EA0E94D10280E263
:100830000E94DB024A81842F0E94DB020F900F90FE
:10084000DF91CF911F910C94D30286EA0E94AA02F5
:1008500086EA0E94D10280E30E94DB0287EA0E94BE
:10086000D1020E94F60287FFF3CF08954F925F9264
:100870006F927F928F929F92AF92BF92CF92DF92B0
:10088000EF92FF920F931F93CF93DF935C016B0165
:100890007A010E94250486EA0E94AA0282E30E944D
:1008A000DB0287EA0E94D1020E94F602C82FD0E044
:1008B00086EA0E94D10283E30E94DB0287EA0E945B
:1008C000D1020E94F602082F10E0102F00270C0F13
:1008D0001D1F86EA0E94D10284E30E94DB0287EAA0
:1008E0000E94D1020E94F602882E912C86EA0E9474
:1008F000D10285E30E94DB0287EA0E94D1020E94B6
:10090000F602C82FD0E0DC2FCC27C80DD91D86EA0F
:100910000E94D10286E30E94DB0287EA0E94D10294
:100920000E94F602882E912C86EA0E94D10287E36B
:100930000E94DB0287EA0E94D1020E94F602282F61
:1009400030E0322F2227820E931E0E94D302B8017C
:10095000110F880B990B0E94E00720E030E040E87F
:100960005BE30E94BF08F5016083718382839383F8
:10097000BE01DD0F880B990B0E94E00720E030E0FC
:1009800040E85BE30E94BF08F601608371838283C5
:100990009383B401990C880B990B0E94E00720E027
:1009A00030E040E85BE30E94BF08F7016083718399
:1009B00082839383C0910001C11126C020E030E002
:1009C00040E45FE360910A0170910B0180910C019A
:1009D00090910D010E94BF082B013C0120E030E006
:1009E00040E85EE3F50160817181828193810E941C
:1009F000BF089B01AC01C301B2010E945306F5017F
:100A00006083718382839383F50180819181A281C8
:100A1000B38180930A0190930B01A0930C01B093D2
:100A20000D01C11126C020E030E040E45FE3609199
:100A300006017091070180910801909109010E94BF
:100A4000BF084B015C0120E030E040E85EE3F601C6
:100A500060817181828193810E94BF089B01AC01FA
:100A6000C501B4010E945306F6016083718382833D
:100A70009383F60180819181A281B38180930601E5
:100A800090930701A0930801B0930901C11126C0FA
:100A900020E030E040E45FE36091020170910301E7
:100AA00080910401909105010E94BF084B015C01F7
:100AB00020E030E040E85EE3F701608171818281EF
:100AC00093810E94BF089B01AC01C501B4010E9443
:100AD0005306F7016083718382839383F7018081DA
:100AE0009181A281B3818093020190930301A0932D
:100AF0000401B093050110920001DF91CF911F9185
:100B00000F91FF90EF90DF90CF90BF90AF909F90AC
:100B10008F907F906F905F904F90089598E0282F6E
:100B200030E0220F232F221F330B232BB1F02C9AFE
:100B300000000000000000000000000000000000B5
:100B400000000000000000002C98000000000000E1
:100B5000000000000000000012C02C9A00000000FD
:100B6000000000002C9800000000000000000000C1
:100B70000000000000000000000000000000880FDE
:100B8000915069F608951F93CF93DF931F92CDB7CD
:100B9000DEB7182F862F49830E948E05812F0E9471
:100BA0008E054981842F0F90DF91CF911F910C9476
:100BB0008E05CF93DF93CDB7DEB72C970FB6F894A1
:100BC000DEBF0FBECDBF19861A861B861C861D820E
:100BD0001E821F82188619821A821B821C820E9422
:100BE000740078940E94B403AE014F5F5F4FBE0162
:100BF0006B5F7F4FCE0109960E94360420E030E003
:100C000040E45FEB69857A858B859C850E9431077E
:100C100087FF2AC020E030E040E85FE36D817E81FD
:100C20008F8198850E94530620E030E040E05FE32A
:100C30000E94BF0820E030E040E752E40E94BF0875
:100C40000E94A8077B0100E010E040E00E151F05A0
:100C500011F46FEF01C060E080E00E94C3050F5FF8
:100C60001F4F0C33110589F72FEF80E792E02150D9
:100C700080409040E1F700C00000B6CFAA1BBB1B2C
:100C800051E107C0AA1FBB1FA617B70710F0A61B8C
:100C9000B70B881F991F5A95A9F780959095BC01AD
:100CA000CD0108955058BB27AA270E946A060C94CC
:100CB0007D080E946F0838F00E94760820F039F411
:100CC0009F3F19F426F40C9445080EF4E095E7FBD9
:100CD0000C943F08E92F0E948E0858F3BA17620758
:100CE00073078407950720F079F4A6F50C94B008F3
:100CF0000EF4E0950B2EBA2FA02D0B01B901900137
:100D00000C01CA01A0011124FF27591B99F0593F7A
:100D100050F4503E68F11A16F040A22F232F342FC2
:100D20004427585FF3CF469537952795A795F04010
:100D30005395C9F77EF41F16BA0B620B730B840B25
:100D4000BAF09150A1F0FF0FBB1F661F771F881FDD
:100D5000C2F70EC0BA0F621F731F841F48F4879535
:100D600077956795B795F7959E3F08F0B0CF939527
:100D7000880F08F09927EE0F9795879508950E94A0
:100D80006F0860F080E891E009F49EEF0E94760819
:100D900028F040E851E071F45EEF0CC00C94450877
:100DA0000C94B008E92FE0780E948E0840F3092ED9
:100DB000052AB1F3261737074807590738F00E2ED2
:100DC00007F8E02569F0E025E0640AC0EF6307F862
:100DD000009407FADB01B9019D01DC01CA01AD01F4
:100DE000EF930E944D070E947D080E9402075F91C9
:100DF000552339F02BED3FE049E450FD49EC0C94CC
:100E000053060895DF93DD27B92FBF7740E85FE3EE
:100E10001616170648075B0718F4D92F0E94B70863
:100E20009F938F937F936F930E947209ECE7F0E09A
:100E30000E9448080E947D082F913F914F915F9139
:100E40000E94D208DD2351F09058A2EA2AED3FE03B
:100E500049EC5FE3D0785D270E946A06DF910C942D
:100E60007D080E941B0808F481E008950E944A074B
:100E70000C947D080E94760858F00E946F0840F09C
:100E800029F45F3F29F00C943F0851110C94B108EC
:100E90000C9445080E948E0868F39923B1F35523FA
:100EA00091F3951B550BBB27AA276217730784077D
:100EB00038F09F5F5F4F220F331F441FAA1FA9F313
:100EC00035D00E2E3AF0E0E832D091505040E69501
:100ED000001CCAF72BD0FE2F29D0660F771F881F62
:100EE000BB1F261737074807AB07B0E809F0BB0B55
:100EF000802DBF01FF2793585F4F3AF09E3F510569
:100F000078F00C943F080C94B1085F3FE4F3983EEE
:100F1000D4F3869577956795B795F7959F5FC9F751
:100F2000880F911D9695879597F90895E1E0660FD2
:100F3000771F881FBB1F621773078407BA0720F04B
:100F4000621B730B840BBA0BEE1F88F7E0950895B4
:100F50000E94AF076894B1110C94B10808950E94E3
:100F6000960888F09F5798F0B92F9927B751B0F09D
:100F7000E1F0660F771F881F991F1AF0BA95C9F71D
:100F800014C0B13091F00E94B008B1E008950C9403
:100F9000B008672F782F8827B85F39F0B93FCCF3B6
:100FA000869577956795B395D9F73EF4909580959A
:100FB000709561957F4F8F4F9F4F0895E89409C0BA
:100FC00097FB3EF490958095709561957F4F8F4F7C
:100FD0009F4F9923A9F0F92F96E9BB279395F69592
:100FE000879577956795B795F111F8CFFAF4BB0F10
:100FF00011F460FF1BC06F5F7F4F8F4F9F4F16C074
:10100000882311F096E911C0772321F09EE8872FFD
:10101000762F05C0662371F096E8862F70E060E0B9
:101020002AF09A95660F771F881FDAF7880F969532
:10103000879597F90895990F0008550FAA0BE0E8D6
:10104000FEEF16161706E807F907C0F0121613068A
:10105000E407F50798F0621B730B840B950B39F4CA
:101060000A2661F0232B242B252B21F408950A2630
:1010700009F4A140A6958FEF811D811D089597F970
:101080009F6780E870E060E008959FEF80EC08952E
:10109000DF93CF931F930F93FF92EF92DF927B0129
:1010A0008C01689406C0DA2EEF010E94D208FE017E
:1010B000E894A5912591359145915591A6F3EF01BD
:1010C0000E946A06FE019701A801DA9469F7DF9091
:1010D000EF90FF900F911F91CF91DF910895002421
:1010E0000A941616170618060906089500240A948D
:1010F00012161306140605060895092E0394000C13
:1011000011F4882352F0BB0F40F4BF2B11F460FFA1
:1011100004C06F5F7F4F8F4F9F4F089557FD9058CA
:10112000440F551F59F05F3F71F04795880F97FBAB
:10113000991F61F09F3F79F0879508951216130665
:101140001406551FF2CF4695F1DF08C01616170694
:101150001806991FF1CF86957105610508940895C9
:10116000E894BB2766277727CB0197F908959B0161
:10117000AC0160E070E080E89FE30C9436070E94C9
:10118000D2080C947D080E946F0838F00E947608FF
:1011900020F0952311F00C943F080C94450811247D
:1011A0000C94B1080E948E0870F3959FC1F3950FBF
:1011B00050E0551F629FF001729FBB27F00DB11DDB
:1011C000639FAA27F00DB11DAA1F649F6627B00D6B
:1011D000A11D661F829F2227B00DA11D621F739F54
:1011E000B00DA11D621F839FA00D611D221F749F62
:1011F0003327A00D611D231F849F600D211D822FA9
:10120000762F6A2F11249F5750409AF0F1F08823CF
:101210004AF0EE0FFF1FBB1F661F771F881F9150FC
:101220005040A9F79E3F510580F00C943F080C9464
:10123000B1085F3FE4F3983ED4F3869577956795C0
:10124000B795F795E7959F5FC1F7FE2B880F911D26
:101250009695879597F9089519F416F40C94450816
:101260000C9476090E949608B8F39923C9F3B6F353
:101270009F57550B87FF0E9484090024A0E640EA8F
:10128000900180585695979528F4805C660F771FDB
:10129000881F20F026173707480730F4621B730BAE
:1012A000840B202931294A2BA695179407942025D1
:1012B00031254A2758F7660F771F881F20F0261719
:1012C0003707480730F4620B730B840B200D311D78
:1012D000411DA09581F7B901842F9158880F9695EB
:1012E000879508959B01AC010C94BF089F3F31F096
:1012F000915020F4879577956795B795880F911D44
:101300009695879597F9089591505040660F771FED
:0A131000881FD2F70895F894FFCF6C
:02131A000100D0
:00000001FF
