:100000000C9473000C9490000C9490000C9490004D
:100010000C9490000C9490000C9490000C94900020
:100020000C9490000C9490000C9490000C94900010
:100030000C9490000C9490000C9490000C94900000
:100040000C9490000C9490000C9490000C949000F0
:100050000C9490000C9490000C9490000C949000E0
:100060000C9490000C9490000C9490000C949000D0
:100070000C9490000C9490000C949000084AD73B8C
:100080003BCE016E84BCBFFDC12F3D6C74319ABD67
:1000900056833DDA3D00C77F11BED9E4BB4C3E918B
:1000A0006BAAAABE000000803F004E414E494E4957
:1000B0005459494E46CDCCCC3D0AD7233C17B7D135
:1000C0003877CC2B329595E6241FB14F0A000020DB
:1000D000410000C84200401C4620BCBE4CCA1B0E5A
:1000E0005AAEC59D740011241FBECFEFD8E0DEBF0D
:1000F000CDBF11E0A0E0B1E0E6E0F8E102C005907C
:100100000D92A032B107D9F721E0A0E2B1E001C021
:100110001D92AE32B207E1F70E9433060C94010C37
:100120000C940000249A089585E28A95F1F7000066
:100130000895FF920F931F93CF93DF93182F062FED
:10014000F42EF894CCE3D0E04F2D602F812F0E9445
:100150001D062197C9F7789485E28A95F1F700008A
:10016000DF91CF911F910F91FF900895DF92EF9251
:10017000FF920F931F93CF93DF93F82EE62ED42E8A
:10018000C0E0D0E0F89420E030E089010F5F1F4F1D
:10019000C217D30738F04D2D6E2D8F2D0E941D06EE
:1001A0009801F3CF0F5F1F4F0E33110531F040E080
:1001B00060E080E00E941D06F5CF789425E22A9544
:1001C000F1F700008FEF90E722E08150904020404F
:1001D000E1F700C000002196CC33D10599F6DF91FC
:1001E000CF911F910F91FF90EF90DF9008959F9214
:1001F000AF92BF92CF92DF92EF92FF920F931F9335
:10020000CF93DF93B82EA62E942E93E0E92EF12CF7
:1002100000E010E0F8948CE3C82ED12CC0E0D0E0D0
:10022000C017D10721F4492D6A2D8B2D03C040E062
:1002300060E080E00E941D062196CC30D10511F4CB
:10024000C0E0D0E021E0C21AD10851F7789485E2ED
:100250008A95F1F700009FEF21EE84E09150204055
:100260008040E1F700C000000F5F1F4F0C30110508
:1002700089F691E0E91AF10859F6DF91CF911F91C3
:100280000F91FF90EF90DF90CF90BF90AF909F9035
:1002900008956F927F928F929F92AF92BF92CF926A
:1002A000DF92EF92FF920F931F93CF93DF936C0136
:1002B0005B014A01C0E0D0E000E010E0CC15DD05B4
:1002C000A1F1F89438012CE3E22EF12C611483E0C3
:1002D000780610F083E0781A862D272D33272130F9
:1002E000310549F02230310559F0232B79F440E0F3
:1002F000662D809509C0462D662D609580E004C06E
:10030000462D409560E0862D0E941D06680C791CE4
:1003100081E0E81AF108D1F6789485E28A95F1F740
:1003200000000A0D1B1D2196C9CFDF91CF911F91AF
:100330000F91FF90EF90DF90CF90BF90AF909F9084
:100340008F907F906F9008952F923F924F925F927F
:100350006F927F928F929F92AF92BF92CF92DF92D5
:10036000EF92FF920F931F93CF93DF9300D000D0B3
:10037000CDB7DEB7982E062FE42E6901F5E0AF2E3B
:10038000B12CC114D10431F14E2D602F892D0E9462
:1003900099002FEF40E752E0215040405040E1F7F4
:1003A00000C0000040E060E080E00E9499008FEF14
:1003B00093ED20E3815090402040E1F700C0000021
:1003C000C601880F991F880F991FB5010E94DE068C
:1003D0006B01D7CFF12C662477246E187F0810E0CC
:1003E00022243324201A310A892D90E02227332732
:1003F000281B390BFE2CEE24102F0027582F4427E2
:100400005C834B83A12CB12C812C912C412C512C41
:10041000C12CDD24D394A2014E0D5F1DB401600FE9
:10042000711F8B819C818A0D9B1D452F672F892F02
:1004300029833A830E94990051E0C51AD108460CDD
:10044000571C820C931C29813A81A20EB31EC11441
:10045000D10409F740E060E080E00F900F900F902A
:100460000F90DF91CF911F910F91FF90EF90DF9050
:10047000CF90BF90AF909F908F907F906F905F9044
:100480004F903F902F900C94990020E040E060E066
:100490008FEF0E94B60020E040E06FEF80E00E9406
:1004A000B60020E04FEF60E080E00E94B60020E060
:1004B0004FE76FE78FE70E94F70020E040E060E041
:1004C0008FE70E94F70020E04FE760E080E00C94A7
:1004D000F7001092C50087E68093C40088E18093FE
:1004E000C100E2ECF0E08081877F808380818460BE
:1004F000808380818F7C808308959091C00095FFD8
:10050000FCCF8093C60008958091C00087FFFCCF88
:100510008091C6000895CF92DF92EF92FF920F93E1
:100520001F93CF93DF93CDB7DEB72A970FB6F8941A
:10053000DEBF0FBECDBFCE0101967C0100E010E012
:100540006C010E9484028D3021F40E9484028A3062
:1005500041F0F70181937F010F5F1F4F09301105B3
:1005600081F7F601E00FF11F1082C6010E94020A16
:100570002A960FB6F894DEBF0FBECDBFDF91CF91A4
:100580001F910F91FF90EF90DF90CF900895CF9340
:10059000DF93EC018991882319F00E947D02FACF44
:1005A000DF91CF9108959091C00095FFFCCF80938B
:1005B000C60080E090E008951092B90088E1809331
:1005C000B800089594EA9093BC009091BC0097FF06
:1005D000FCCF9091B900987F983021F0903111F0C4
:1005E00081E008958093BB0084E88093BC008091F3
:1005F000BC0087FFFCCF8091B900887F883111F063
:10060000803471F780E0089524EA34E844E92093C7
:10061000BC009091BC0097FFFCCF9091B900987FEF
:10062000983011F0903199F78093BB003093BC0063
:100630009091BC0097FFFCCF9091B900987F9032C9
:1006400011F0983539F44093BC009091BC0094FDB2
:10065000FCCFDDCF08950C94E20284E98093BC00C6
:100660008091BC0084FDFCCF08958093BB0084E89A
:100670008093BC008091BC0087FFFCCF9091B900B3
:10068000987F81E0983209F480E0089584EC8093AB
:10069000BC008091BC0087FFFCCF8091BB00089517
:1006A00084E88093BC008091BC0087FFFCCF8091E0
:1006B000BB0008952F923F924F925F926F927F926C
:1006C0008F929F92AF92BF92CF92DF92EF92FF9262
:1006D0000F931F93CF93DF93CDB7DEB728970FB655
:1006E000F894DEBF0FBECDBF6D837E838F83988766
:1006F00029833A834B835C832701380116018501E6
:100700009B01AC010E9436094B015C0129813A81B1
:100710004B815C81CA01B9010E9436099B01AC0181
:10072000C501B4010E94F3064B015C01A3019201D3
:10073000C301B2010E9436099B01AC01C501B4019D
:100740000E94F3060E94A9096B017C019B01AC0188
:1007500069817A818B819C810E94D1074B015C0168
:10076000A7019601C301B2010E94D10769837A8370
:100770008B839C83A5019401C501B4010E943609B5
:100780002B013C0129813A814B815C81CA01B9016D
:100790000E9436099B01AC01C301B2010E94F3061D
:1007A0000E94A9092B013C01A70196016D817E8160
:1007B0008F8198850E94D107A30192010E94720740
:1007C000DC01CB01B058F10180839183A283B38314
:1007D00029813A814B815C81C501B4010E94720775
:1007E000F801608371838283938328960FB6F8940F
:1007F000DEBF0FBECDBFDF91CF911F910F91FF9054
:10080000EF90DF90CF90BF90AF909F908F907F90B0
:100810006F905F904F903F902F9008950E94DC0260
:1008200025E32A95F1F700008FE39FE10197F1F7A7
:1008300000C0000086EA0E942B0381E30E9435037A
:1008400080E00E94350386EA0E942B038DE20E941D
:10085000350380E00E94350386EA0E942B038DE277
:100860000E94350386E10E94350386EA0E942B032D
:100870008DE20E94350388E00E94350386EA0E94DB
:100880002B038EE20E94350380E80E9435039FEF20
:1008900029EF80E0915020408040E1F700C0000047
:1008A0000C942D031F93CF93DF9300D0CDB7DEB709
:1008B000182F86EA4A8369830E9404038EE10E940E
:1008C0003503812F0E94350386EA0E942B038FE1B6
:1008D0000E9435036981862F0E94350386EA0E94B3
:1008E0002B0380E20E9435034A81842F0E94350346
:1008F0000F900F90DF91CF911F910C942D0386EAFA
:100900000E94040386EA0E942B0380E30E943503C1
:1009100087EA0E942B030E94500387FFF3CF0895BC
:100920004F925F926F927F928F929F92AF92BF92FF
:10093000CF92DF92EF92FF920F931F93CF93DF93AB
:100940005C016B017A010E947F0486EA0E94040325
:1009500082E30E94350387EA0E942B030E94500322
:10096000C82FD0E086EA0E942B0383E30E94350360
:1009700087EA0E942B030E945003082F10E0102FDB
:1009800000270C0F1D1F86EA0E942B0384E30E94A0
:10099000350387EA0E942B030E945003882E912C76
:1009A00086EA0E942B0385E30E94350387EA0E94B2
:1009B0002B030E945003C82FD0E0DC2FCC27C80D9A
:1009C000D91D86EA0E942B0386E30E94350387EA3D
:1009D0000E942B030E945003882E912C86EA0E94CD
:1009E0002B0387E30E94350387EA0E942B030E94B2
:1009F0005003282F30E0322F2227820E931E0E94B0
:100A00002D03B801110F880B990B0E947B0820E081
:100A100030E040E85BE30E943609F50160837183B2
:100A200082839383BE01DD0F880B990B0E947B08A4
:100A300020E030E040E85BE30E943609F601608385
:100A4000718382839383B401990C880B990B0E9464
:100A50007B0820E030E040E85BE30E943609F701C4
:100A60006083718382839383C0910001C11126C08A
:100A700020E030E040E45FE36091280170912901BB
:100A800080912A0190912B010E9436092B013C0193
:100A900020E030E040E85EE3F50160817181828111
:100AA00093810E9436099B01AC01C301B2010E94EF
:100AB000F306F5016083718382839383F50180815E
:100AC0009181A281B3818093280190932901A09301
:100AD0002A01B0932B01C11126C020E030E040E490
:100AE0005FE360912401709125018091260190912E
:100AF00027010E9436094B015C0120E030E040E80C
:100B00005EE3F60160817181828193810E943609E2
:100B10009B01AC01C501B4010E94F306F60160839C
:100B2000718382839383F60180819181A281B38155
:100B30008093240190932501A0932601B09327016F
:100B4000C11126C020E030E040E45FE36091200165
:100B50007091210180912201909123010E94360918
:100B60004B015C0120E030E040E85EE3F70160818A
:100B70007181828193810E9436099B01AC01C5017C
:100B8000B4010E94F306F70160837183828393832B
:100B9000F70180819181A281B3818093200190939C
:100BA0002101A0932201B093230110920001DF9153
:100BB000CF911F910F91FF90EF90DF90CF90BF905A
:100BC000AF909F908F907F906F905F904F9008951F
:100BD00098E0282F30E0220F232F221F330B232BE6
:100BE000B1F02C9A0000000000000000000000009E
:100BF0000000000000000000000000002C98000031
:100C000000000000000000000000000012C02C9A4C
:100C100000000000000000002C9800000000000010
:100C200000000000000000000000000000000000C4
:100C30000000880F915069F608951F93CF93DF93BA
:100C40001F92CDB7DEB7182F862F49830E94E80583
:100C5000812F0E94E8054981842F0F90DF91CF9169
:100C60001F910C94E805CF93DF93CDB7DEB7609763
:100C70000FB6F894DEBF0FBECDBF19861A861B864D
:100C80001C861D821E821F82188619821A821B8270
:100C90001C820E94920078940E940E040E946902B5
:100CA00081E091E00E94C7020EE110E0AE014F5FCB
:100CB0005F4FBE016B5F7F4FCE0109960E9490048B
:100CC00081E091E00E94C70269857A858B859C85C9
:100CD0008D809E80AF80B884C980DA80EB80FC80F4
:100CE0009B01AC010E9436092B013C01A501940136
:100CF000C501B4010E9436099B01AC01C301B201D8
:100D00000E94F3064B015C01A7019601C701B601E1
:100D10000E9436099B01AC01C501B4010E94F30693
:100D20006B017C018BE091E00E94C7020E948B0264
:100D30009B01AC0185E191E02D873E874F87588B61
:100D40000E94C7022D853E854F855889C701B6018F
:100D50000E94F3069B01AC01C701B6010E94D107B6
:100D600020E030E040E752E40E9436090E94430848
:100D7000061717071CF40F5F1F4F05C06017710798
:100D800014F401501109E12CF12C40E00E151F055F
:100D90001CF06FEF80E002C060E08FEF0E941D0644
:100DA0008FEFE81AF80A9CE3E916F10471F78FE374
:100DB0009CE90197F1F700C0000078CFAA1BBB1B8C
:100DC00051E107C0AA1FBB1FA617B70710F0A61B4B
:100DD000B70B881F991F5A95A9F780959095BC016C
:100DE000CD0108955058BB27AA270E940A070C94EA
:100DF000F4080E94E60838F00E94ED0820F039F46B
:100E00009F3F19F426F40C94BC080EF4E095E7FB20
:100E10000C94B608E92F0E94050958F3BA17620727
:100E200073078407950720F079F4A6F50C94270939
:100E30000EF4E0950B2EBA2FA02D0B01B9019001F5
:100E40000C01CA01A0011124FF27591B99F0593F39
:100E500050F4503E68F11A16F040A22F232F342F81
:100E60004427585FF3CF469537952795A795F040CF
:100E70005395C9F77EF41F16BA0B620B730B840BE4
:100E8000BAF09150A1F0FF0FBB1F661F771F881F9C
:100E9000C2F70EC0BA0F621F731F841F48F48795F4
:100EA00077956795B795F7959E3F08F0B0CF9395E6
:100EB000880F08F09927EE0F9795879508950E945F
:100EC000E60860F080E891E009F49EEF0E94ED08EA
:100ED00028F040E851E071F45EEF0CC00C94BC08BF
:100EE0000C942709E92FE0780E94050940F3092EA8
:100EF000052AB1F3261737074807590738F00E2E91
:100F000007F8E02569F0E025E0640AC0EF6307F820
:100F1000009407FADB01B9019D01DC01CA01AD01B2
:100F2000EF930E94E8070E94F4080E94A2075F91D5
:100F3000552339F02BED3FE049E450FD49EC0C948A
:100F4000F3060895DF93DD27B92FBF7740E85FE30D
:100F50001616170648075B0718F4D92F0E942E09AA
:100F60009F938F937F936F930E94E909ECE7F0E0E2
:100F70000E94BF080E94F4082F913F914F915F910A
:100F80000E944909DD2351F09058A2EA2AED3FE082
:100F900049EC5FE3D0785D270E940A07DF910C944B
:100FA000F4080E94E5070C94F4080E94ED0858F03C
:100FB0000E94E60840F029F45F3F29F00C94B6083F
:100FC00051110C9428090C94BC080E94050968F37F
:100FD0009923B1F3552391F3951B550BBB27AA27F2
:100FE00062177307840738F09F5F5F4F220F331F2C
:100FF000441FAA1FA9F335D00E2E3AF0E0E832D0F4
:1010000091505040E695001CCAF72BD0FE2F29D0F6
:10101000660F771F881FBB1F261737074807AB07C8
:10102000B0E809F0BB0B802DBF01FF2793585F4F3D
:101030003AF09E3F510578F00C94B6080C942809BC
:101040005F3FE4F3983ED4F3869577956795B7951F
:10105000F7959F5FC9F7880F911D9695879597F92A
:101060000895E1E0660F771F881FBB1F62177307A3
:101070008407BA0720F0621B730B840BBA0BEE1FB8
:1010800088F7E09508950E944A086894B1110C947D
:10109000280908950E940D0988F09F5798F0B92FEC
:1010A0009927B751B0F0E1F0660F771F881F991F9D
:1010B0001AF0BA95C9F714C0B13091F00E9427090F
:1010C000B1E008950C942709672F782F8827B85F1F
:1010D00039F0B93FCCF3869577956795B395D9F7F5
:1010E0003EF490958095709561957F4F8F4F9F4FFF
:1010F0000895E89409C097FB3EF49095809570950B
:1011000061957F4F8F4F9F4F9923A9F0F92F96E953
:10111000BB279395F695879577956795B795F111C8
:10112000F8CFFAF4BB0F11F460FF1BC06F5F7F4F65
:101130008F4F9F4F16C0882311F096E911C0772377
:1011400021F09EE8872F762F05C0662371F096E880
:10115000862F70E060E02AF09A95660F771F881F4F
:10116000DAF7880F9695879597F9089597F99F670D
:1011700080E870E060E008959FEF80EC0895DF93D1
:10118000CF931F930F93FF92EF92DF927B018C011D
:10119000689406C0DA2EEF010E944909FE01E89426
:1011A000A5912591359145915591A6F3EF010E94A6
:1011B0000A07FE019701A801DA9469F7DF90EF9022
:1011C000FF900F911F91CF91DF91089500240A9411
:1011D0001616170618060906089500240A94121612
:1011E0001306140605060895092E0394000C11F445
:1011F000882352F0BB0F40F4BF2B11F460FF04C0F2
:101200006F5F7F4F8F4F9F4F089557FD9058440F4A
:10121000551F59F05F3F71F04795880F97FB991F55
:1012200061F09F3F79F08795089512161306140612
:10123000551FF2CF4695F1DF08C01616170618069F
:10124000991FF1CF86957105610508940895E8947A
:10125000BB2766277727CB0197F908959B01AC013F
:1012600060E070E080E89FE30C94D1070E94490998
:101270000C94F4080E94E60838F00E94ED0820F073
:10128000952311F00C94B6080C94BC0811240C940E
:1012900028090E94050970F3959FC1F3950F50E04E
:1012A000551F629FF001729FBB27F00DB11D639F18
:1012B000AA27F00DB11DAA1F649F6627B00DA11DBE
:1012C000661F829F2227B00DA11D621F739FB00D64
:1012D000A11D621F839FA00D611D221F749F3327D4
:1012E000A00D611D231F849F600D211D822F762F6D
:1012F0006A2F11249F5750409AF0F1F088234AF04A
:10130000EE0FFF1FBB1F661F771F881F91505040B5
:10131000A9F79E3F510580F00C94B6080C9428095B
:101320005F3FE4F3983ED4F3869577956795B7953C
:10133000F795E7959F5FC1F7FE2B880F911D969556
:10134000879597F9089519F416F40C94BC080C9439
:10135000ED090E940D09B8F39923C9F3B6F39F571D
:10136000550B87FF0E94FB090024A0E640EA90018C
:1013700080585695979528F4805C660F771F881FD4
:1013800020F026173707480730F4621B730B840BD5
:10139000202931294A2BA695179407942025312519
:1013A0004A2758F7660F771F881F20F02617370740
:1013B000480730F4620B730B840B200D311D411D67
:1013C000A09581F7B901842F9158880F969587953C
:1013D00008959B01AC010C9436099F3F31F0915068
:1013E00020F4879577956795B795880F911D969509
:1013F000879597F9089591505040660F771F881F81
:10140000D2F70895662777270C94060AA0E0B0E08B
:10141000ECE0FAE00C94BF0BEC017B016115710567
:1014200019F0DB018D939C938E010F5F1F4F788025
:10143000872D90E00E94630B892B11F0E801F4CF17
:10144000BDE27B1205C00F5F1F4F7980C1E008C06D
:10145000EBE27E1204C08E010E5F1F4F7980C0E068
:101460006801F1E0CF1AD10843E050E062EB70E090
:10147000C6010E946C0B892BF1F4680122E0C20EB8
:10148000D11C45E050E06DEA70E0C6010E946C0B93
:10149000892B21F4680187E0C80ED11CE114F10406
:1014A00019F0D701CD92DC92C111FFC060E070E06D
:1014B00080E89FE703C143E050E06AEA70E0C601BC
:1014C0000E946C0B892B51F4E114F10409F4F2C071
:1014D0000E5F1F4FF70111830083ECC0680160E0CD
:1014E00070E0CB0100E010E0F601D0EDD70DDA306E
:1014F00058F52C2F2260622E2C2F2870C2FF05C0B9
:10150000211128C00F5F1F4F25C0222311F0015069
:101510001109A5E0B0E09B01AC010E94B00B4B01AA
:101520005C01880C991CAA1CBB1CC501B4016D0F81
:10153000711D811D911D6839A9E97A078A07A9E102
:101540009A0740F0C66005C0DE3F51F4C3FD44C0B9
:10155000C8606C2EBFEFCB1ADB0A7080C62DC4CFDB
:101560002D2F2F7D2531C1F540814D3211F4C06101
:1015700006C04B3221F0319621E030E006C03296B1
:10158000D60111964C9122E030E0A0EDA40FAA30D4
:1015900018F0E21BF30B20C040E050E04038BCE004
:1015A0005B075CF49A01220F331F220F331F420F97
:1015B000531F440F551F4A0F511D3196DF011197DC
:1015C0002C91A0EDA20FAA3048F3C4FF03C051959F
:1015D00041955109040F151FC1FF07C0E114F10423
:1015E00021F03197D701ED93FC930E947908C370E5
:1015F000C33019F06B017C0106C06B017C01F7FA66
:10160000F094F7F8F09420E030E0A901C701B601AA
:101610000E94840B882309F445C017FF06C011956A
:1016200001951109C9ECD0E002C0C1EED0E05E0125
:10163000B8E1AB1AB1084601BE2DAF2D90E2E92EFC
:10164000F12C0E151F0584F0FE0125913591459171
:101650005491B4018B2F9A2F0E9436094B01B82F59
:10166000A92F0E191F09EDCF2497F594E794CA15F9
:10167000DB0539F76401EB2EFA2E8E2D880F8F2DA6
:10168000881F8F3F49F020E030E0A901C701B60173
:101690000E94840B811106C082E290E090932D019C
:1016A00080932C01C701B60109C060E070E080E8BA
:1016B0009FEF04C060E070E080EC9FE7CDB7DEB73D
:1016C000EEE00C94DB0B91110C94AD0B803219F011
:1016D00089508550C8F70895FB01DC014150504006
:1016E00088F08D9181341CF08B350CF4805E65910F
:1016F00061341CF06B350CF4605E861B611171F374
:10170000990B0895881BFCCF0E94890B08F481E097
:101710000895990F0008550FAA0BE0E8FEEF161682
:101720001706E807F907C0F012161306E407F507D5
:1017300098F0621B730B840B950B39F40A2661F049
:10174000232B242B252B21F408950A2609F4A140EC
:10175000A6958FEF811D811D0895992788270895EB
:101760000E94F20BA59F900DB49F900DA49F800D39
:10177000911D112408952F923F924F925F926F9284
:101780007F928F929F92AF92BF92CF92DF92EF9211
:10179000FF920F931F93CF93DF93CDB7DEB7CA1B92
:1017A000DB0B0FB6F894DEBF0FBECDBF09942A88BD
:1017B000398848885F846E847D848C849B84AA8465
:1017C000B984C884DF80EE80FD800C811B81AA81F2
:1017D000B981CE0FD11D0FB6F894DEBF0FBECDBFBD
:1017E000ED010895A29FB001B39FC001A39F700DAA
:1017F000811D1124911DB29F700D811D1124911D19
:061800000895F894FFCFEB
:101806000153616C757421310D0A0053616C757456
:1018160021320D0A0053616C757421330D0A0000E4
:00000001FF
