:100000000C94D5000C94F2000C94F2000C94F200C5
:100010000C94F2000C94F2000C94F2000C94F20098
:100020000C94F2000C94F2000C94F2000C94F20088
:100030000C94F2000C94F2000C94F2000C94F20078
:100040000C94F2000C94F2000C94F2000C94F20068
:100050000C94F2000C94F2000C94F2000C94F20058
:100060000C94F2000C94F2000C94F2000C94F20048
:100070000C94F2000C94F2000C94F200084AD73B66
:100080003BCE016E84BCBFFDC12F3D6C74319ABD67
:1000900056833DDA3D00C77F11BED9E4BB4C3E918B
:1000A0006BAAAABE000000803F0000858F0A9B1E3D
:1000B0001491B3363CB928ADA722E3666CE978FD0C
:1000C000F77250D5DF5ACB4E44C143C6CC49D85DF8
:1000D00057D2F0757FFA6BEEE461A0252FAA3BBEE4
:1000E000B43113969C19880D07828603098C1D98DC
:1000F000921735B0BA3FAE2B21A465E0EA6FFE7BC4
:1001000071F4D65359DC4DC8C247C5404ACF5EDBB7
:10011000D15476F3F97CED6862E726A3A92CBD38AB
:1001200032B795101A9F0E8B8104890C06831297A3
:100130009D183ABFB530A1242EAB6AEFE560F1748B
:100140007EFBD95C56D342C7CD48CA4F45C051D477
:10015000DE5B79FCF673E2676DE829ACA623B23763
:100160003DB89A1F159001848E0B0F8A800594115B
:100170001B9EBC3933B627A2A82DEC6963E677F243
:10018000F87D5FDAD055C4414BCE4CC9C346D75237
:1001900058DDFF7A70F564E1EB6EAF2A20A534B12B
:1001A000BB3E1C9993168702088D11241FBECFEF0A
:1001B000D8E0DEBFCDBF11E0A0E0B1E0E6E0F2E1C3
:1001C00002C005900D92AC30B107D9F721E0ACE048
:1001D000B1E001C01D92A23AB207E1F70E94720598
:1001E0000C9401090C9400001F920F920FB60F920D
:1001F00011242F938F939F93EF93FF938091C000CF
:100200009091C6008871E0915301EF5FEF712091EA
:100210005201E21739F0E0935301F0E0EA5AFE4F41
:10022000908301C082E080935101FF91EF919F91F3
:100230008F912F910F900FBE0F901F9018951F92C6
:100240000F920FB60F9211248F939F93EF93FF930A
:100250009091550180915401981769F0E0915401F3
:10026000EF5FEF71E0935401F0E0EA58FE4F8081B8
:100270008093C60005C08091C1008F7D8093C1002E
:10028000FF91EF919F918F910F900FBE0F901F9054
:10029000189510925501109254011092530110922A
:1002A000520197FF04C022E02093C0009F779093F3
:1002B000C5008093C40088E98093C10086E08093E4
:1002C000C20008959091530180915201981791F0C6
:1002D000E0915201EF5FEF71E0935201F0E0EA5AD2
:1002E000FE4F20818091510190E0982F8827820F46
:1002F000911D089580E091E00895909155019F5FD0
:100300009F71209154019217E1F3E92FF0E0EA5830
:10031000FE4F8083909355018091C100806280934D
:10032000C1000895CF93DF93EC018991882319F0E0
:100330000E947D01FACFDF91CF910895CF93DF9393
:10034000FC018491EF012196882321F00E947D0118
:10035000FE01F7CFDF91CF9108951F920F920FB654
:100360000F9211242F938F939F93EF93FF9380917C
:10037000C8009091CE008871E0910E01EF5FEF719F
:1003800020910D01E21739F0E0930E01F0E0EF5EED
:10039000FE4F908301C082E080930C01FF91EF91AA
:1003A0009F918F912F910F900FBE0F901F901895D6
:1003B0001F920F920FB60F9211248F939F93EF937A
:1003C000FF939091100180910F01981769F0E091CF
:1003D0000F01EF5FEF71E0930F01F0E0EF5CFE4F74
:1003E00080818093CE0005C08091C9008F7D80936D
:1003F000C900FF91EF919F918F910F900FBE0F90C9
:100400001F9018951092100110920F0110920E017A
:1004100010920D0197FF04C022E02093C8009F773F
:100420009093CD008093CC0088E98093C90086E04A
:100430008093CA00089590910E0180910D01981744
:1004400091F0E0910D01EF5FEF71E0930D01F0E0AD
:10045000EF5EFE4F208180910C0190E0982F88275D
:10046000820F911D089580E091E008959091100110
:100470009F5F9F7120910F019217E1F3E92FF0E048
:10048000EF5CFE4F8083909310018091C9008062E1
:100490008093C9000895CF93DF93EC01899188235D
:1004A00019F00E943602FACFDF91CF910895CF93D1
:1004B000DF93FC018491EF012196882321F00E94B3
:1004C0003602FE01F7CFDF91CF9108951092B90067
:1004D00088E18093B800089594EA9093BC009091CD
:1004E000BC0097FFFCCF9091B900987F983021F025
:1004F000903111F081E008958093BB0084E88093EF
:10050000BC008091BC0087FFFCCF8091B900887F40
:10051000883111F0803471F780E0089524EA34E8DE
:1005200044E92093BC009091BC0097FFFCCF9091D0
:10053000B900987F983011F0903199F78093BB0003
:100540003093BC009091BC0097FFFCCF9091B90014
:10055000987F903211F0983539F44093BC00909117
:10056000BC0094FDFCCFDDCF08950C946C0284E9AF
:100570008093BC008091BC0084FDFCCF08958093E3
:10058000BB0084E88093BC008091BC0087FFFCCF57
:100590009091B900987F81E0983209F480E0089545
:1005A00084EC8093BC008091BC0087FFFCCF8091DD
:1005B000BB00089584E88093BC008091BC0087FF55
:1005C000FCCF8091BB0008952F923F924F925F9293
:1005D0006F927F928F929F92AF92BF92CF92DF9253
:1005E000EF92FF920F931F93CF93DF93CDB7DEB7B8
:1005F00028970FB6F894DEBF0FBECDBF6D837E8304
:100600008F83988729833A834B835C832701380142
:10061000160185019B01AC010E9435084B015C016C
:1006200029813A814B815C81CA01B9010E94350858
:100630009B01AC01C501B4010E9428064B015C017D
:10064000A3019201C301B2010E9435089B01AC01D4
:10065000C501B4010E9428060E94A8086B017C0114
:100660009B01AC0169817A818B819C810E94060784
:100670004B015C01A7019601C301B2010E9406076C
:1006800069837A838B839C83A5019401C501B4019E
:100690000E9435082B013C0129813A814B815C8104
:1006A000CA01B9010E9435089B01AC01C301B20126
:1006B0000E9428060E94A8082B013C01A701960170
:1006C0006D817E818F8198850E940607A30192012A
:1006D0000E94A706DC01CB01B058F1018083918311
:1006E000A283B38329813A814B815C81C501B40126
:1006F0000E94A706F8016083718382839383289602
:100700000FB6F894DEBF0FBECDBFDF91CF911F9122
:100710000F91FF90EF90DF90CF90BF90AF909F90A0
:100720008F907F906F905F904F903F902F900895A3
:100730000E94660225E32A95F1F700008FE39FE10E
:100740000197F1F700C0000086EA0E94B50281E33C
:100750000E94BF0280E00E94BF0286EA0E94B502AA
:100760008DE20E94BF0280E00E94BF0286EA0E94E2
:10077000B5028DE20E94BF0286E10E94BF0286EAB6
:100780000E94B5028DE20E94BF0288E00E94BF0273
:1007900086EA0E94B5028EE20E94BF0280E80E94B3
:1007A000BF029FEF29EF80E0915020408040E1F7A9
:1007B00000C000000C94B7021F93CF93DF9300D0CA
:1007C000CDB7DEB7182F86EA4A8369830E948E026E
:1007D0008EE10E94BF02812F0E94BF0286EA0E9422
:1007E000B5028FE10E94BF026981862F0E94BF027D
:1007F00086EA0E94B50280E20E94BF024A81842FED
:100800000E94BF020F900F90DF91CF911F910C9427
:10081000B70286EA0E948E0286EA0E94B50280E351
:100820000E94BF0287EA0E94B5020E94DA0287FF97
:10083000F3CF08954F925F926F927F928F929F9223
:10084000AF92BF92CF92DF92EF92FF920F931F93DE
:10085000CF93DF935C016B017A010E94090486EA61
:100860000E948E0282E30E94BF0287EA0E94B502C4
:100870000E94DA02C82FD0E086EA0E94B50283E324
:100880000E94BF0287EA0E94B5020E94DA02082F86
:1008900010E0102F00270C0F1D1F86EA0E94B502E2
:1008A00084E30E94BF0287EA0E94B5020E94DA0236
:1008B000882E912C86EA0E94B50285E30E94BF0231
:1008C00087EA0E94B5020E94DA02C82FD0E0DC2F2E
:1008D000CC27C80DD91D86EA0E94B50286E30E9486
:1008E000BF0287EA0E94B5020E94DA02882E912C8C
:1008F00086EA0E94B50287E30E94BF0287EA0E944F
:10090000B5020E94DA02282F30E0322F2227820E11
:10091000931E0E94B702B801110F880B990B0E9419
:100920007A0720E030E040E85BE30E943508F501FB
:100930006083718382839383BE01DD0F880B990BE3
:100940000E947A0720E030E040E85BE30E9435082F
:10095000F6016083718382839383B401990C880BC1
:10096000990B0E947A0720E030E040E85BE30E94A8
:100970003508F7016083718382839383C0910001FE
:10098000C11126C020E030E040E45FE360919E01A9
:1009900070919F018091A0019091A1010E94350862
:1009A0002B013C0120E030E040E85EE3F50160818E
:1009B0007181828193810E9435089B01AC01C30142
:1009C000B2010E942806F5016083718382839383BC
:1009D000F50180819181A281B38180939E019093E2
:1009E0009F01A093A001B093A101C11126C020E0F6
:1009F00030E040E45FE360919A0170919B01809147
:100A00009C0190919D010E9435084B015C0120E002
:100A100030E040E85EE3F60160817181828193817C
:100A20000E9435089B01AC01C501B4010E94280653
:100A3000F6016083718382839383F60180819181C3
:100A4000A281B38180939A0190939B01A0939C0112
:100A5000B0939D01C11126C020E030E040E45FE387
:100A60006091960170919701809198019091990100
:100A70000E9435084B015C0120E030E040E85EE375
:100A8000F70160817181828193810E9435089B0109
:100A9000AC01C501B4010E942806F701608371838F
:100AA00082839383F70180819181A281B3818093B6
:100AB000960190939701A0939801B0939901109299
:100AC0000001DF91CF911F910F91FF90EF90DF9088
:100AD000CF90BF90AF909F908F907F906F905F90DE
:100AE0004F900895CF93DF93CDB7DEB72C970FB615
:100AF000F894DEBF0FBECDBF19861A861B861C86F2
:100B00001D821E821F82188619821A821B821C82F5
:100B10008FE991E00E94490181E091E00E949201F9
:100B200078940E949803AE014F5F5F4FBE016B5FE8
:100B30007F4FCE0109960E941A0489853A852B853C
:100B40009C85482F50E046555F4FFA01659174919E
:100B50003627E32FF0E0E655FF4F459154912427C7
:100B600030E026553F4FF901459154919427E92FE4
:100B7000F0E0E655FF4F659174914D813E812F81E4
:100B80009885462750E046555F4FFA01659174916C
:100B90003627E32FF0E0E655FF4F45915491242787
:100BA00030E026553F4FF901459154919427E92FA4
:100BB000F0E0E655FF4F6591749149813A812B81B0
:100BC0009C81462750E046555F4FFA01659174912C
:100BD0003627E32FF0E0E655FF4F45915491242747
:100BE00030E026553F4FF901459154919427E92F64
:100BF000F0E0E655FF4F059114910E947D018A8532
:100C00000E947D018B850E947D018C850E947D0163
:100C10008D810E947D018E810E947D018F810E94C5
:100C20007D0188850E947D0189810E947D018A81E4
:100C30000E947D018B810E947D018C810E947D013B
:100C4000802F0E947D018AE00E947D016CCF505868
:100C5000BB27AA270E943F060C94F3070E94E507D2
:100C600038F00E94EC0720F039F49F3F19F426F485
:100C70000C94BB070EF4E095E7FB0C94B507E92F45
:100C80000E94040858F3BA17620773078407950790
:100C900020F079F4A6F50C9426080EF4E0950B2EBE
:100CA000BA2FA02D0B01B90190010C01CA01A001BE
:100CB0001124FF27591B99F0593F50F4503E68F119
:100CC0001A16F040A22F232F342F4427585FF3CF5A
:100CD000469537952795A795F0405395C9F77EF42B
:100CE0001F16BA0B620B730B840BBAF09150A1F074
:100CF000FF0FBB1F661F771F881FC2F70EC0BA0FFA
:100D0000621F731F841F48F4879577956795B79581
:100D1000F7959E3F08F0B0CF9395880F08F099277C
:100D2000EE0F9795879508950E94E50760F080E89B
:100D300091E009F49EEF0E94EC0728F040E851E0B2
:100D400071F45EEF0CC00C94BB070C942608E92FDD
:100D5000E0780E94040840F3092E052AB1F3261713
:100D600037074807590738F00E2E07F8E02569F0D5
:100D7000E025E0640AC0EF6307F8009407FADB019E
:100D8000B9019D01DC01CA01AD01EF930E941D076D
:100D90000E94F3070E94D7065F91552339F02BED8F
:100DA0003FE049E450FD49EC0C9428060895DF9398
:100DB000DD27B92FBF7740E85FE31616170648070F
:100DC0005B0718F4D92F0E942D089F938F937F9370
:100DD0006F930E94E808ECE7F0E00E94BE070E94D3
:100DE000F3072F913F914F915F910E944808DD23B7
:100DF00051F09058A2EA2AED3FE049EC5FE3D07849
:100E00005D270E943F06DF910C94F3070E941A07AA
:100E10000C94F3070E94EC0758F00E94E50740F09D
:100E200029F45F3F29F00C94B50751110C94270861
:100E30000C94BB070E94040868F39923B1F355236F
:100E400091F3951B550BBB27AA27621773078407DD
:100E500038F09F5F5F4F220F331F441FAA1FA9F373
:100E600035D00E2E3AF0E0E832D091505040E69561
:100E7000001CCAF72BD0FE2F29D0660F771F881FC2
:100E8000BB1F261737074807AB07B0E809F0BB0BB5
:100E9000802DBF01FF2793585F4F3AF09E3F5105C9
:100EA00078F00C94B5070C9427085F3FE4F3983E64
:100EB000D4F3869577956795B795F7959F5FC9F7B2
:100EC000880F911D9695879597F90895E1E0660F33
:100ED000771F881FBB1F621773078407BA0720F0AC
:100EE000621B730B840BBA0BEE1F88F7E095089515
:100EF000E89409C097FB3EF49095809570956195B4
:100F00007F4F8F4F9F4F9923A9F0F92F96E9BB2769
:100F10009395F695879577956795B795F111F8CFE5
:100F2000FAF4BB0F11F460FF1BC06F5F7F4F8F4F50
:100F30009F4F16C0882311F096E911C0772321F046
:100F40009EE8872F762F05C0662371F096E8862FDE
:100F500070E060E02AF09A95660F771F881FDAF735
:100F6000880F9695879597F9089597F99F6780E878
:100F700070E060E008959FEF80EC0895DF93CF93D9
:100F80001F930F93FF92EF92DF927B018C01689485
:100F900006C0DA2EEF010E944808FE01E894A591F0
:100FA0002591359145915591A6F3EF010E943F0699
:100FB000FE019701A801DA9469F7DF90EF90FF90A6
:100FC0000F911F91CF91DF91089500240A94161676
:100FD000170618060906089500240A941216130627
:100FE000140605060895092E0394000C11F48823B5
:100FF00052F0BB0F40F4BF2B11F460FF04C06F5FD1
:101000007F4F8F4F9F4F089557FD9058440F551FA6
:1010100059F05F3F71F04795880F97FB991F61F07A
:101020009F3F79F087950895121613061406551FF1
:10103000F2CF4695F1DF08C0161617061806991F5D
:10104000F1CF86957105610508940895E894BB2752
:1010500066277727CB0197F908959B01AC0160E0E3
:1010600070E080E89FE30C9406070E9448080C9407
:10107000F3070E94E50738F00E94EC0720F0952363
:1010800011F00C94B5070C94BB0711240C9427089D
:101090000E94040870F3959FC1F3950F50E0551F0F
:1010A000629FF001729FBB27F00DB11D639FAA27BD
:1010B000F00DB11DAA1F649F6627B00DA11D661F0C
:1010C000829F2227B00DA11D621F739FB00DA11D2D
:1010D000621F839FA00D611D221F749F3327A00DE7
:1010E000611D231F849F600D211D822F762F6A2F83
:1010F00011249F5750409AF0F1F088234AF0EE0FE8
:10110000FF1FBB1F661F771F881F91505040A9F714
:101110009E3F510580F00C94B5070C9427085F3F63
:10112000E4F3983ED4F3869577956795B795F79550
:10113000E7959F5FC1F7FE2B880F911D96958795C8
:1011400097F9089519F416F40C94BB070C94EC0865
:101150000E940C08B8F39923C9F3B6F39F57550BB7
:1011600087FF0E94FA080024A0E640EA9001805818
:101170005695979528F4805C660F771F881F20F09E
:1011800026173707480730F4621B730B840B20299E
:1011900031294A2BA69517940794202531254A27F3
:1011A00058F7660F771F881F20F026173707480764
:1011B00030F4620B730B840B200D311D411DA09583
:1011C00081F7B901842F9158880F969587950895D6
:1011D0009B01AC010C9435089F3F31F0915020F4F5
:1011E000879577956795B795880F911D9695879503
:1011F00097F9089591505040660F771F881FD2F7D6
:061200000895F894FFCFF1
:0C12060001766173696C6963610A000085
:00000001FF
