:100000000C94D2000C94EF000C94EF000C94EF00D1
:100010000C94EF000C94EF000C94EF000C94EF00A4
:100020000C94EF000C94EF000C94EF000C94EF0094
:100030000C94EF000C94EF000C94EF000C94EF0084
:100040000C94EF000C94EF000C94EF000C94EF0074
:100050000C94EF000C94EF000C94EF000C94EF0064
:100060000C94EF000C94EF000C94EF000C94EF0054
:100070000C94EF000C94EF000C94EF00084AD73B6F
:100080003BCE016E84BCBFFDC12F3D6C74319ABD67
:1000900056833DDA3D00C77F11BED9E4BB4C3E918B
:1000A0006BAAAABE000000803F0000407A10F35AFD
:1000B00000A0724E18090010A5D4E80000E87648A8
:1000C000170000E40B54020000CA9A3B000000E154
:1000D000F505000080969800000040420F000000E7
:1000E000A08601000000102700000000E8030000C7
:1000F00000006400000000000A0000000000010091
:10010000000000002C76D888DC674F0823DFC1DFB1
:10011000AE59E1B1B796E5E3E453C63AE6519976B4
:1001200096E8E6C28426EB898C9B62ED407C6FFCEE
:10013000EFBC9C9F40F2BAA56FA5F490055A2AF730
:100140005C936B6CF9676DC11BFCE0E40D47FEF539
:1001500020E6B500D0ED902E0300943577050080A1
:10016000841E080000204E0A000000C80C33333300
:10017000330F986E12831141EF8D2114893BE655A0
:1001800016CFFEE6DB18D1844B381BF77C1D901D83
:10019000A4BBE424203284725E228100C9F124ECE5
:1001A000A1E53D2711241FBECFEFD8E0DEBFCDBFB4
:1001B00011E0A0E0B1E0E6E1F4E102C005900D92AB
:1001C000AC31B107D9F721E0ACE1B1E001C01D923B
:1001D000A832B207E1F70E9434040C94090A0C9487
:1001E00000001092C50087E68093C40088E18093E8
:1001F000C100E2ECF0E08081877F808380818460B1
:10020000808380818062808308959091C00095FFF3
:10021000FCCF8093C60008958091C00087FFFCCF7B
:100220008091C6000895CF93DF93EC0189918823D4
:1002300019F00E940501FACFDF91CF9108959091B6
:10024000C00095FFFCCF8093C60080E090E0089549
:100250001092B90088E18093B800089594EA9093D1
:10026000BC009091BC0097FFFCCF9091B900987FA3
:10027000983021F0903111F081E008958093BB0017
:1002800084E88093BC008091BC0087FFFCCF809104
:10029000B900887F883111F0803471F780E00895CB
:1002A00024EA34E844E92093BC009091BC0097FF15
:1002B000FCCF9091B900987F983011F0903199F768
:1002C0008093BB003093BC009091BC0097FFFCCFA3
:1002D0009091B900987F903211F0983539F440939D
:1002E000BC009091BC0094FDFCCFDDCF08950C9430
:1002F0002E0184E98093BC008091BC0084FDFCCF7A
:1003000008958093BB0084E88093BC008091BC007A
:1003100087FFFCCF9091B900987F81E0983209F473
:1003200080E0089584EC8093BC008091BC0087FF3E
:10033000FCCF8091BB00089584E88093BC0080913D
:10034000BC0087FFFCCF8091BB0008952F923F92A5
:100350004F925F926F927F928F929F92AF92BF92D5
:10036000CF92DF92EF92FF920F931F93CF93DF9381
:10037000CDB7DEB728970FB6F894DEBF0FBECDBF5E
:100380006D837E838F83988729833A834B835C8335
:1003900027013801160185019B01AC010E94B706B7
:1003A0004B015C0129813A814B815C81CA01B90111
:1003B0000E94B7069B01AC01C501B4010E94AA04CA
:1003C0004B015C01A3019201C301B2010E94B70677
:1003D0009B01AC01C501B4010E94AA040E942A0736
:1003E0006B017C019B01AC0169817A818B819C81CD
:1003F0000E9488054B015C01A7019601C301B2016F
:100400000E94880569837A838B839C83A50194016C
:10041000C501B4010E94B7062B013C0129813A8134
:100420004B815C81CA01B9010E94B7069B01AC01F6
:10043000C301B2010E94AA040E942A072B013C01B9
:10044000A70196016D817E818F8198850E94880524
:10045000A30192010E942905DC01CB01B058F101F2
:1004600080839183A283B38329813A814B815C810C
:10047000C501B4010E942905F8016083718382835C
:10048000938328960FB6F894DEBF0FBECDBFDF91E1
:10049000CF911F910F91FF90EF90DF90CF90BF9081
:1004A000AF909F908F907F906F905F904F903F9014
:1004B0002F9008950E94280125E32A95F1F7000066
:1004C0008FE39FE10197F1F700C0000086EA0E94E8
:1004D000770181E30E94810180E00E94810186EA28
:1004E0000E9477018DE20E94810180E00E948101DB
:1004F00086EA0E9477018DE20E94810186E10E94D6
:10050000810186EA0E9477018DE20E94810188E0E4
:100510000E94810186EA0E9477018EE20E94810199
:1005200080E80E9481019FEF29EF80E091502040F8
:100530008040E1F700C000000C9479011F93CF9335
:10054000DF9300D0CDB7DEB7182F86EA4A836983E0
:100550000E9450018EE10E948101812F0E94810141
:1005600086EA0E9477018FE10E9481016981862FCE
:100570000E94810186EA0E94770180E20E94810147
:100580004A81842F0E9481010F900F90DF91CF91BB
:100590001F910C94790186EA0E94500186EA0E941C
:1005A000770180E30E94810187EA0E9477010E941F
:1005B0009C0187FFF3CF08954F925F926F927F92D5
:1005C0008F929F92AF92BF92CF92DF92EF92FF9263
:1005D0000F931F93CF93DF935C016B017A010E940D
:1005E000CB0286EA0E94500182E30E94810187EAE1
:1005F0000E9477010E949C01C82FD0E086EA0E94E9
:10060000770183E30E94810187EA0E9477010E94BB
:100610009C01082F10E0102F00270C0F1D1F86EAE9
:100620000E94770184E30E94810187EA0E9477019A
:100630000E949C01882E912C86EA0E94770185E316
:100640000E94810187EA0E9477010E949C01C82FC5
:10065000D0E0DC2FCC27C80DD91D86EA0E94770197
:1006600086E30E94810187EA0E9477010E949C0133
:10067000882E912C86EA0E94770187E30E948101EF
:1006800087EA0E9477010E949C01282F30E0322FD8
:100690002227820E931E0E947901B801110F880B48
:1006A000990B0E94FC0520E030E040E85BE30E94EB
:1006B000B706F5016083718382839383BE01DD0FEA
:1006C000880B990B0E94FC0520E030E040E85BE3DA
:1006D0000E94B706F6016083718382839383B4011D
:1006E000990C880B990B0E94FC0520E030E040E853
:1006F0005BE30E94B706F701608371838283938373
:10070000C0910001C11126C020E030E040E45FE369
:10071000609124017091250180912601909127011B
:100720000E94B7062B013C0120E030E040E85EE388
:10073000F50160817181828193810E94B7069B01DE
:10074000AC01C301B2010E94AA04F5016083718368
:1007500082839383F50180819181A281B38180930B
:10076000240190932501A0932601B0932701C11184
:1007700026C020E030E040E45FE36091200170910A
:10078000210180912201909123010E94B7064B0123
:100790005C0120E030E040E85EE3F60160817181B9
:1007A000828193810E94B7069B01AC01C501B4010F
:1007B0000E94AA04F6016083718382839383F60109
:1007C00080819181A281B381809320019093210146
:1007D000A0932201B0932301C11126C020E030E094
:1007E00040E45FE360911C0170911D0180911E0146
:1007F00090911F010E94B7064B015C0120E030E0A0
:1008000040E85EE3F70160817181828193810E94FB
:10081000B7069B01AC01C501B4010E94AA04F7010F
:100820006083718382839383F70180819181A281A8
:10083000B38180931C0190931D01A0931E01B0937E
:100840001F0110920001DF91CF911F910F91FF9036
:10085000EF90DF90CF90BF90AF909F908F907F9060
:100860006F905F904F900895CF93DF93CDB7DEB731
:1008700066970FB6F894DEBF0FBECDBF1B8A1C8AE9
:100880001D8A1E8A1F86188A198A1A8A1B861C8648
:100890001D861E860E94F10081E091E00E941301F6
:1008A00078940E945A028BE091E00E941301AE01FD
:1008B000455F5F4FBE01615F7F4FCE0143960E944F
:1008C000DC026B897C898D899E898F849888A988B0
:1008D000BA88CB84DC84ED84FE849B01AC010E9449
:1008E000B7062B013C01A5019401C501B4010E948A
:1008F000B7069B01AC01C301B2010E94AA044B01DF
:100900005C01A7019601C701B6010E94B7069B01D1
:10091000AC01C501B4010E94AA048E010F5F1F4FF4
:1009200025E043E00E948307C8010E94130189E18A
:1009300091E00E94130188E091E00E9413012FEFE3
:1009400081EE94E0215080409040E1F700C000002B
:10095000AECF5058BB27AA270E94C1040C9475063D
:100960000E94670638F00E946E0620F039F49F3F1F
:1009700019F426F40C943D060EF4E095E7FB0C9474
:100980003706E92F0E94860658F3BA1762077307E5
:100990008407950720F079F4A6F50C94A8060EF4C8
:1009A000E0950B2EBA2FA02D0B01B90190010C017F
:1009B000CA01A0011124FF27591B99F0593F50F497
:1009C000503E68F11A16F040A22F232F342F4427EF
:1009D000585FF3CF469537952795A795F0405395E7
:1009E000C9F77EF41F16BA0B620B730B840BBAF0B7
:1009F0009150A1F0FF0FBB1F661F771F881FC2F722
:100A00000EC0BA0F621F731F841F48F48795779535
:100A10006795B795F7959E3F08F0B0CF9395880FEF
:100A200008F09927EE0F9795879508950E9467061D
:100A300060F080E891E009F49EEF0E946E0628F0D5
:100A400040E851E071F45EEF0CC00C943D060C944C
:100A5000A806E92FE0780E94860640F3092E052AB1
:100A6000B1F3261737074807590738F00E2E07F855
:100A7000E02569F0E025E0640AC0EF6307F8009420
:100A800007FADB01B9019D01DC01CA01AD01EF9359
:100A90000E949F050E9475060E9459055F9155238B
:100AA00039F02BED3FE049E450FD49EC0C94AA04E9
:100AB0000895DF93DD27B92FBF7740E85FE316166F
:100AC000170648075B0718F4D92F0E94AF069F93BB
:100AD0008F937F936F930E946A07ECE7F0E00E9488
:100AE00040060E9475062F913F914F915F910E94A1
:100AF000CA06DD2351F09058A2EA2AED3FE049EC06
:100B00005FE3D0785D270E94C104DF910C947506E5
:100B10000E949C050C9475060E946E0658F00E9477
:100B2000670640F029F45F3F29F00C943706511115
:100B30000C94A9060C943D060E94860668F399233E
:100B4000B1F3552391F3951B550BBB27AA276217C9
:100B50007307840738F09F5F5F4F220F331F441FD6
:100B6000AA1FA9F335D00E2E3AF0E0E832D091500A
:100B70005040E695001CCAF72BD0FE2F29D0660FF7
:100B8000771F881FBB1F261737074807AB07B0E83A
:100B900009F0BB0B802DBF01FF2793585F4F3AF040
:100BA0009E3F510578F00C9437060C94A9065F3FE0
:100BB000E4F3983ED4F3869577956795B795F795C6
:100BC0009F5FC9F7880F911D9695879597F90895AE
:100BD000E1E0660F771F881FBB1F6217730784074A
:100BE000BA0720F0621B730B840BBA0BEE1F88F759
:100BF000E0950895E89409C097FB3EF490958095A0
:100C0000709561957F4F8F4F9F4F9923A9F0F92FD2
:100C100096E9BB279395F695879577956795B79550
:100C2000F111F8CFFAF4BB0F11F460FF1BC06F5F36
:100C30007F4F8F4F9F4F16C0882311F096E911C048
:100C4000772321F09EE8872F762F05C0662371F069
:100C500096E8862F70E060E02AF09A95660F771F7D
:100C6000881FDAF7880F9695879597F9089597F971
:100C70009F6780E870E060E008959FEF80EC089542
:100C8000DF93CF931F930F93FF92EF92DF927B013D
:100C90008C01689406C0DA2EEF010E94CA06FE019C
:100CA000E894A5912591359145915591A6F3EF01D1
:100CB0000E94C104FE019701A801DA9469F7DF9050
:100CC000EF90FF900F911F91CF91DF910895002435
:100CD0000A941616170618060906089500240A94A1
:100CE00012161306140605060895092E0394000C27
:100CF00011F4882352F0BB0F40F4BF2B11F460FFB6
:100D000004C06F5F7F4F8F4F9F4F089557FD9058DE
:100D1000440F551F59F05F3F71F04795880F97FBBF
:100D2000991F61F09F3F79F0879508951216130679
:100D30001406551FF2CF4695F1DF08C016161706A8
:100D40001806991FF1CF86957105610508940895DD
:100D5000E894BB2766277727CB0197F908959B0175
:100D6000AC0160E070E080E89FE30C9488050E948D
:100D7000CA060C9475060E94670638F00E946E063B
:100D800020F0952311F00C9437060C943D061124A5
:100D90000C94A9060E94860670F3959FC1F3950FE7
:100DA00050E0551F629FF001729FBB27F00DB11DEF
:100DB000639FAA27F00DB11DAA1F649F6627B00D7F
:100DC000A11D661F829F2227B00DA11D621F739F68
:100DD000B00DA11D621F839FA00D611D221F749F76
:100DE0003327A00D611D231F849F600D211D822FBD
:100DF000762F6A2F11249F5750409AF0F1F08823E4
:100E00004AF0EE0FFF1FBB1F661F771F881F915010
:100E10005040A9F79E3F510580F00C9437060C9482
:100E2000A9065F3FE4F3983ED4F3869577956795DE
:100E3000B795F795E7959F5FC1F7FE2B880F911D3A
:100E40009695879597F9089519F416F40C943D0634
:100E50000C946E070E948E06B8F39923C9F3B6F37B
:100E60009F57550B87FF0E947C070024A0E640EAAD
:100E7000900180585695979528F4805C660F771FEF
:100E8000881F20F026173707480730F4621B730BC2
:100E9000840B202931294A2BA695179407942025E5
:100EA00031254A2758F7660F771F881F20F026172D
:100EB0003707480730F4620B730B840B200D311D8C
:100EC000411DA09581F7B901842F9158880F9695FF
:100ED000879508959B01AC010C94B7069F3F31F0B4
:100EE000915020F4879577956795B795880F911D58
:100EF0009695879597F9089591505040660F771F02
:100F0000881FD2F70895EF920F931F93CF93DF932B
:100F1000E80147FD02C034E001C034E1E42F440F92
:100F2000FF0BF7FF03C0F195E195F109E32E022FC6
:100F30002E2FAE010E94A307CE01DF91CF911F910A
:100F40000F91EF9008954F925F926F927F929F92D0
:100F5000AF92BF92CF92DF92EF92FF920F931F93C7
:100F6000CF93DF93CDB7DEB729970FB6F894DEBFE6
:100F70000FBECDBF6A01122FB02E2BE3201720F039
:100F8000FF24F394F00E02C0BCE3FB2E0F2D27E0EC
:100F9000AE014F5F5F4F0E943109AC018981982FEC
:100FA0009970913031F0E1FC06C0E0FE06C090E29D
:100FB00005C09DE203C09BE201C090E0EE2DE07110
:100FC00083FF3CC0911102C083E001C084E081171F
:100FD00018F4212F281B01C020E0E1110BC0F601FD
:100FE000822F30E2882319F031938150FBCFC20E5B
:100FF000D11C20E0992329F0D6019C93F60131966B
:101000006F01C6010396E2FE0AC03EE4D6013C939E
:1010100041E411964C93119712963C9306C03EE61C
:10102000F601308341E641833283FC01322F40E2F6
:10103000332309F442C041933150FACF82FF44C0B8
:10104000911102C083E001C084E0811718F4212FC0
:10105000281B01C020E0E1110BC0F601822F30E215
:10106000882319F031938150FBCFC20ED11C20E0B0
:10107000992329F0D6019C93F60131966F01C601A0
:101080000396E2FE0BC039E4D6013C933EE4119690
:101090003C93119736E412963C9307C039E6F6016B
:1010A00030833EE6318336E63283FC01322F40E264
:1010B000332319F041933150FBCFFC01E20FF11DB6
:1010C00010828EEF9FEFB7C0F1E0911101C0F0E008
:1010D0006F2F70E01416150624F49A012F5F3F4F0E
:1010E00002C021E030E0260F371FBB2029F06B2D16
:1010F00070E06F5F7F4F02C060E070E0260F371F27
:10110000612F70E0261737071CF4121B212F01C036
:1011100020E03E2D387159F4D601322F60E233239E
:1011200019F06D933150FBCFC20ED11C20E0FF238C
:1011300031F0D6019C93B6016F5F7F4F6B01E111D7
:101140000BC0F601922F30E3992319F0319391509F
:10115000FBCFC20ED11C20E09F2D940F3A81782F37
:101160007071A72E84FF03C0313309F49150191612
:1011700024F4993018F098E001C091E0E42F852F15
:1011800057FF02C0E0E080E06E2F782FE0E0F0E053
:10119000AEE29A2E3A01691A71082A01461A570AD4
:1011A0000B2D10E01195019511096F3F8FEF780716
:1011B00029F4D6019C92C60101966C014617570787
:1011C00084F0661677066CF47F01E40CF51CA1E050
:1011D000B0E0AC0FBD1FEA0EFB1ED7011196BC900C
:1011E00002C090E3B92E615071093196C601019693
:1011F0007C016017710724F0D601BC926C01D5CF39
:101200006417750741F4363320F4353321F4A11007
:1012100002C081E3B82EF601B082F701822F90E27E
:10122000882319F091938150FBCFF701E20FF11D54
:10123000108280E090E029960FB6F894DEBF0FBED2
:10124000CDBFDF91CF911F910F91FF90EF90DF9075
:10125000CF90BF90AF909F907F906F905F904F9096
:101260000895283008F027E03327DA01990F311D5F
:1012700087FD916000966105710539F432602E5F3B
:101280003D9330E32A95E1F708959F3F30F0803891
:101290007105610509F03C5F3C5F3D93913008F0BA
:1012A0008068911DDF93CF931F930F93FF92EF926E
:1012B000192F987F9695E92F96959695E90FFF2718
:1012C000EC5FFE4F99273327EE24FF24A701E701A7
:1012D00005900894079428F4360FE71EF81E491F5E
:1012E000511D660F771F881F991F0694A1F705905F
:1012F000079428F4E70EF81E491F561FC11D770FEB
:10130000881F991F661F0694A1F70590079428F47B
:10131000F80E491F561FC71FD11D880F991F661F42
:10132000771F0694A1F70590079420F4490F561FE4
:10133000C71FD81F990F661F771F881F0694A9F72C
:1013400084911095177041F0D695C795579547959C
:10135000F794E7941A95C1F7EAEAF0E068941590DB
:10136000159135916591959105907FE27395E118FE
:10137000F10A430B560BC90BD009C0F7E10CF11E63
:10138000431F561FC91FD01D7EF4703311F48A9578
:10139000E6CFE894015030F0080F0AF40027021756
:1013A00008F4202F2395022F7A3328F079E37D93D8
:1013B0002A95E9F710C07D932A9589F606949795AA
:1013C0006795379517951794E118F10A430B560B5B
:1013D000C90BD00998F023957E9173957A3308F064
:1013E00070E37C932013B8F77E9170617D9330F0A9
:1013F000839571E37D9370E32A95E1F71124EF90D3
:10140000FF900F911F91CF91DF91992787FD9095C4
:061410000895F894FFCFDF
:1014160001676967656C0A0D0A0D00676967656C87
:0C1426006C6C6C6C0A0D0A0D00200000BC
:00000001FF
