:100000000C943E000C9448000C9448000C9448005A
:100010000C9448000C9448000C9448000C94480040
:100020000C9448000C9448000C9448000C94480030
:100030000C9448000C9448000C9448000C94480020
:100040000C9448000C9448000C9448000C94480010
:100050000C9448000C9448000C9448000C94480000
:100060000C9448000C9448000C9448000C944800F0
:100070000C9448000C9448000C94480011241FBEB6
:10008000CFEFD8E0DEBFCDBF0E946E020C94870296
:100090000C940000249A089585E28A95F1F70000F7
:1000A0000895FF920F931F93CF93DF93182F062F7E
:1000B000F42EF894CCE3D0E04F2D602F812F0E94D6
:1000C00058022197C9F7789485E28A95F1F70000E4
:1000D000DF91CF911F910F91FF900895DF92EF92E2
:1000E000FF920F931F93CF93DF93F82EE62ED42E1B
:1000F000C0E0D0E0F89420E030E089010F5F1F4FAE
:10010000C217D30738F04D2D6E2D8F2D0E94580247
:100110009801F3CF0F5F1F4F0E33110531F040E010
:1001200060E080E00E945802F5CF789425E22A959D
:10013000F1F700008FEF90E722E0815090402040DF
:10014000E1F700C000002196CC33D10599F6DF918C
:10015000CF911F910F91FF90EF90DF9008959F92A4
:10016000AF92BF92CF92DF92EF92FF920F931F93C5
:10017000CF93DF93B82EA62E942E93E0E92EF12C88
:1001800000E010E0F8948CE3C82ED12CC0E0D0E061
:10019000C017D10721F4492D6A2D8B2D03C040E0F3
:1001A00060E080E00E9458022196CC30D10511F425
:1001B000C0E0D0E021E0C21AD10851F7789485E27E
:1001C0008A95F1F700009FEF21EE84E091502040E6
:1001D0008040E1F700C000000F5F1F4F0C30110599
:1001E00089F691E0E91AF10859F6DF91CF911F9154
:1001F0000F91FF90EF90DF90CF90BF90AF909F90C6
:1002000008956F927F928F929F92AF92BF92CF92FA
:10021000DF92EF92FF920F931F93CF93DF936C01C6
:100220005B014A01C0E0D0E000E010E0CC15DD0544
:10023000A1F1F89438012CE3E22EF12C611483E053
:10024000780610F083E0781A862D272D3327213089
:10025000310549F02230310559F0232B79F440E083
:10026000662D809509C0462D662D609580E004C0FE
:10027000462D409560E0862D0E945802680C791C3E
:1002800081E0E81AF108D1F6789485E28A95F1F7D1
:1002900000000A0D1B1D2196C9CFDF91CF911F9140
:1002A0000F91FF90EF90DF90CF90BF90AF909F9015
:1002B0008F907F906F9008952F923F924F925F9210
:1002C0006F927F928F929F92AF92BF92CF92DF9266
:1002D000EF92FF920F931F93CF93DF9300D000D044
:1002E000CDB7DEB7982E062FE42E6901F5E0AF2ECC
:1002F000B12CC114D10431F14E2D602F892D0E94F3
:1003000051002FEF40E752E0215040405040E1F7CC
:1003100000C0000040E060E080E00E9451008FEFEC
:1003200093ED20E3815090402040E1F700C00000B1
:10033000C601880F991F880F991FB5010E9473028B
:100340006B01D7CFF12C662477246E187F0810E05C
:1003500022243324201A310A892D90E022273327C2
:10036000281B390BFE2CEE24102F0027582F442772
:100370005C834B83A12CB12C812C912C412C512CD2
:10038000C12CDD24D394A2014E0D5F1DB401600F7A
:10039000711F8B819C818A0D9B1D452F672F892F93
:1003A00029833A830E94510051E0C51AD108460CB6
:1003B000571C820C931C29813A81A20EB31EC114D2
:1003C000D10409F740E060E080E00F900F900F90BB
:1003D0000F90DF91CF911F910F91FF90EF90DF90E1
:1003E000CF90BF90AF909F908F907F906F905F90D5
:1003F0004F903F902F900C9451000C944A0020E0B5
:1004000040E060E08FEF0E946E0020E040E06FEF80
:1004100080E00E946E0020E04FEF60E080E00E94EC
:100420006E0020E04FE76FE78FE70E94AF0020E00B
:1004300040E060E08FE70E94AF0020E04FE760E01F
:1004400080E00C94AF0098E0282F30E0220F232F9B
:10045000221F330B232BB1F02C9A00000000000068
:10046000000000000000000000000000000000008C
:1004700000002C98000000000000000000000000B8
:10048000000012C02C9A00000000000000002C9810
:10049000000000000000000000000000000000005C
:1004A0000000000000000000880F915069F60895D8
:1004B0001F93CF93DF931F92CDB7DEB7182F862FF0
:1004C00049830E942302812F0E9423024981842FA5
:1004D0000F90DF91CF911F910C9423020E944A004C
:1004E0000E94FF01FDCFAA1BBB1B51E107C0AA1F41
:1004F000BB1FA617B70710F0A61BB70B881F991FC5
:100500005A95A9F780959095BC01CD010895F8946E
:02051000FFCF1B
:00000001FF
